{
 "cells": [
  {
   "cell_type": "code",
   "execution_count": 30,
   "id": "520ca89d",
   "metadata": {},
   "outputs": [],
   "source": [
    "############## PLEASE RUN THIS CELL FIRST! ###################\n",
    "\n",
    "# import everything and define a test runner function\n",
    "from importlib import reload\n",
    "from helper import run\n",
    "import helper, op, script, tx"
   ]
  },
  {
   "cell_type": "markdown",
   "id": "b443d753",
   "metadata": {},
   "source": [
    "### Exercise 1\n",
    "\n",
    "\n",
    "\n",
    "\n",
    "#### Make [this test](/edit/session5/tx.py) pass: `tx.py:TxTest:test_verify_p2pkh`"
   ]
  },
  {
   "cell_type": "code",
   "execution_count": 31,
   "id": "99be8bfc",
   "metadata": {},
   "outputs": [
    {
     "name": "stderr",
     "output_type": "stream",
     "text": [
      ".\n",
      "----------------------------------------------------------------------\n",
      "Ran 1 test in 0.163s\n",
      "\n",
      "OK\n"
     ]
    }
   ],
   "source": [
    "# Exercise 1\n",
    "\n",
    "reload(tx)\n",
    "run(tx.TxTest('test_verify_p2pkh'))"
   ]
  },
  {
   "cell_type": "code",
   "execution_count": 9,
   "id": "e1049b79",
   "metadata": {},
   "outputs": [
    {
     "ename": "NameError",
     "evalue": "name 'requests' is not defined",
     "output_type": "error",
     "traceback": [
      "\u001b[1;31m---------------------------------------------------------------------------\u001b[0m",
      "\u001b[1;31mNameError\u001b[0m                                 Traceback (most recent call last)",
      "Cell \u001b[1;32mIn[9], line 25\u001b[0m\n\u001b[0;32m     23\u001b[0m tx_obj \u001b[38;5;241m=\u001b[39m Tx(\u001b[38;5;241m1\u001b[39m, tx_ins, tx_outs, \u001b[38;5;241m0\u001b[39m, network\u001b[38;5;241m=\u001b[39m\u001b[38;5;124m\"\u001b[39m\u001b[38;5;124msignet\u001b[39m\u001b[38;5;124m\"\u001b[39m)\n\u001b[0;32m     24\u001b[0m \u001b[38;5;66;03m# Step 3\u001b[39;00m\n\u001b[1;32m---> 25\u001b[0m z \u001b[38;5;241m=\u001b[39m \u001b[43mtx_obj\u001b[49m\u001b[38;5;241;43m.\u001b[39;49m\u001b[43msig_hash\u001b[49m\u001b[43m(\u001b[49m\u001b[38;5;241;43m0\u001b[39;49m\u001b[43m)\u001b[49m\n\u001b[0;32m     26\u001b[0m pk \u001b[38;5;241m=\u001b[39m PrivateKey(secret\u001b[38;5;241m=\u001b[39m\u001b[38;5;241m8675309\u001b[39m)\n\u001b[0;32m     27\u001b[0m der \u001b[38;5;241m=\u001b[39m pk\u001b[38;5;241m.\u001b[39msign(z)\u001b[38;5;241m.\u001b[39mder()\n",
      "File \u001b[1;32m~\\Documents\\GitHub\\ProgrammingBitcoin-JimmySong\\session5\\tx.py:162\u001b[0m, in \u001b[0;36mTx.sig_hash\u001b[1;34m(self, input_index)\u001b[0m\n\u001b[0;32m    158\u001b[0m \u001b[38;5;28;01mfor\u001b[39;00m i, tx_in \u001b[38;5;129;01min\u001b[39;00m \u001b[38;5;28menumerate\u001b[39m(\u001b[38;5;28mself\u001b[39m\u001b[38;5;241m.\u001b[39mtx_ins):\n\u001b[0;32m    159\u001b[0m     \u001b[38;5;66;03m# if the input index is the one we're signing\u001b[39;00m\n\u001b[0;32m    160\u001b[0m     \u001b[38;5;28;01mif\u001b[39;00m i \u001b[38;5;241m==\u001b[39m input_index:\n\u001b[0;32m    161\u001b[0m         \u001b[38;5;66;03m# the previous tx's ScriptPubkey is the ScriptSig\u001b[39;00m\n\u001b[1;32m--> 162\u001b[0m         script_sig \u001b[38;5;241m=\u001b[39m \u001b[43mtx_in\u001b[49m\u001b[38;5;241;43m.\u001b[39;49m\u001b[43mscript_pubkey\u001b[49m\u001b[43m(\u001b[49m\u001b[38;5;28;43mself\u001b[39;49m\u001b[38;5;241;43m.\u001b[39;49m\u001b[43mnetwork\u001b[49m\u001b[43m)\u001b[49m\n\u001b[0;32m    163\u001b[0m     \u001b[38;5;66;03m# Otherwise, the ScriptSig is empty\u001b[39;00m\n\u001b[0;32m    164\u001b[0m     \u001b[38;5;28;01melse\u001b[39;00m:\n\u001b[0;32m    165\u001b[0m         script_sig \u001b[38;5;241m=\u001b[39m \u001b[38;5;28;01mNone\u001b[39;00m\n",
      "File \u001b[1;32m~\\Documents\\GitHub\\ProgrammingBitcoin-JimmySong\\session5\\tx.py:297\u001b[0m, in \u001b[0;36mTxIn.script_pubkey\u001b[1;34m(self, network)\u001b[0m\n\u001b[0;32m    293\u001b[0m \u001b[38;5;250m\u001b[39m\u001b[38;5;124;03m\"\"\"Get the scriptPubKey by looking up the tx hash\u001b[39;00m\n\u001b[0;32m    294\u001b[0m \u001b[38;5;124;03mReturns a Script object\u001b[39;00m\n\u001b[0;32m    295\u001b[0m \u001b[38;5;124;03m\"\"\"\u001b[39;00m\n\u001b[0;32m    296\u001b[0m \u001b[38;5;66;03m# use self.fetch_tx to get the transaction\u001b[39;00m\n\u001b[1;32m--> 297\u001b[0m tx \u001b[38;5;241m=\u001b[39m \u001b[38;5;28;43mself\u001b[39;49m\u001b[38;5;241;43m.\u001b[39;49m\u001b[43mfetch_tx\u001b[49m\u001b[43m(\u001b[49m\u001b[43mnetwork\u001b[49m\u001b[38;5;241;43m=\u001b[39;49m\u001b[43mnetwork\u001b[49m\u001b[43m)\u001b[49m\n\u001b[0;32m    298\u001b[0m \u001b[38;5;66;03m# get the output at self.prev_index\u001b[39;00m\n\u001b[0;32m    299\u001b[0m \u001b[38;5;66;03m# return the script_pubkey property\u001b[39;00m\n\u001b[0;32m    300\u001b[0m \u001b[38;5;28;01mreturn\u001b[39;00m tx\u001b[38;5;241m.\u001b[39mtx_outs[\u001b[38;5;28mself\u001b[39m\u001b[38;5;241m.\u001b[39mprev_index]\u001b[38;5;241m.\u001b[39mscript_pubkey\n",
      "File \u001b[1;32m~\\Documents\\GitHub\\ProgrammingBitcoin-JimmySong\\session5\\tx.py:280\u001b[0m, in \u001b[0;36mTxIn.fetch_tx\u001b[1;34m(self, network)\u001b[0m\n\u001b[0;32m    279\u001b[0m \u001b[38;5;28;01mdef\u001b[39;00m \u001b[38;5;21mfetch_tx\u001b[39m(\u001b[38;5;28mself\u001b[39m, network\u001b[38;5;241m=\u001b[39m\u001b[38;5;124m\"\u001b[39m\u001b[38;5;124mmainnet\u001b[39m\u001b[38;5;124m\"\u001b[39m):\n\u001b[1;32m--> 280\u001b[0m     \u001b[38;5;28;01mreturn\u001b[39;00m \u001b[43mTxFetcher\u001b[49m\u001b[38;5;241;43m.\u001b[39;49m\u001b[43mfetch\u001b[49m\u001b[43m(\u001b[49m\u001b[38;5;28;43mself\u001b[39;49m\u001b[38;5;241;43m.\u001b[39;49m\u001b[43mprev_tx\u001b[49m\u001b[38;5;241;43m.\u001b[39;49m\u001b[43mhex\u001b[49m\u001b[43m(\u001b[49m\u001b[43m)\u001b[49m\u001b[43m,\u001b[49m\u001b[43m \u001b[49m\u001b[43mnetwork\u001b[49m\u001b[38;5;241;43m=\u001b[39;49m\u001b[43mnetwork\u001b[49m\u001b[43m)\u001b[49m\n",
      "File \u001b[1;32m~\\Documents\\GitHub\\ProgrammingBitcoin-JimmySong\\session5\\tx.py:36\u001b[0m, in \u001b[0;36mTxFetcher.fetch\u001b[1;34m(cls, tx_id, network, fresh)\u001b[0m\n\u001b[0;32m     34\u001b[0m \u001b[38;5;28;01mif\u001b[39;00m fresh \u001b[38;5;129;01mor\u001b[39;00m (tx_id \u001b[38;5;129;01mnot\u001b[39;00m \u001b[38;5;129;01min\u001b[39;00m \u001b[38;5;28mcls\u001b[39m\u001b[38;5;241m.\u001b[39mcache):\n\u001b[0;32m     35\u001b[0m     url \u001b[38;5;241m=\u001b[39m \u001b[38;5;124mf\u001b[39m\u001b[38;5;124m\"\u001b[39m\u001b[38;5;132;01m{\u001b[39;00m\u001b[38;5;28mcls\u001b[39m\u001b[38;5;241m.\u001b[39mget_url(network)\u001b[38;5;132;01m}\u001b[39;00m\u001b[38;5;124m/tx/\u001b[39m\u001b[38;5;132;01m{\u001b[39;00mtx_id\u001b[38;5;132;01m}\u001b[39;00m\u001b[38;5;124m/hex\u001b[39m\u001b[38;5;124m\"\u001b[39m\n\u001b[1;32m---> 36\u001b[0m     response \u001b[38;5;241m=\u001b[39m \u001b[43mrequests\u001b[49m\u001b[38;5;241m.\u001b[39mget(url)\n\u001b[0;32m     37\u001b[0m     \u001b[38;5;28;01mtry\u001b[39;00m:\n\u001b[0;32m     38\u001b[0m         raw \u001b[38;5;241m=\u001b[39m \u001b[38;5;28mbytes\u001b[39m\u001b[38;5;241m.\u001b[39mfromhex(response\u001b[38;5;241m.\u001b[39mtext\u001b[38;5;241m.\u001b[39mstrip())\n",
      "\u001b[1;31mNameError\u001b[0m: name 'requests' is not defined"
     ]
    }
   ],
   "source": [
    "# Transaction Construction Example\n",
    "from ecc import PrivateKey\n",
    "from helper import decode_base58, SIGHASH_ALL\n",
    "from script import p2pkh_script, Script\n",
    "from tx import Tx, TxIn, TxOut\n",
    "# Step 1\n",
    "tx_ins = []\n",
    "prev_tx = bytes.fromhex('95ae966a54493321316799d5c4ba7f48faadd653b7eb725ea2c5ea7d38f65cff')\n",
    "prev_index = 0\n",
    "tx_ins.append(TxIn(prev_tx, prev_index))\n",
    "# Step 2\n",
    "tx_outs = []\n",
    "h160 = decode_base58('mzx5YhAH9kNHtcN481u6WkjeHjYtVeKVh2')\n",
    "tx_outs.append(TxOut(\n",
    "    amount=int(0.37*100000000),\n",
    "    script_pubkey=p2pkh_script(h160),\n",
    "))\n",
    "h160 = decode_base58('mnrVtF8DWjMu839VW3rBfgYaAfKk8983Xf')\n",
    "tx_outs.append(TxOut(\n",
    "    amount=int(0.1*100000000),\n",
    "    script_pubkey=p2pkh_script(h160),\n",
    "))\n",
    "tx_obj = Tx(1, tx_ins, tx_outs, 0, network=\"signet\")\n",
    "# Step 3\n",
    "z = tx_obj.sig_hash(0)\n",
    "pk = PrivateKey(secret=8675309)\n",
    "der = pk.sign(z).der()\n",
    "sig = der + SIGHASH_ALL.to_bytes(1, 'big')\n",
    "sec = pk.point.sec()\n",
    "tx_obj.tx_ins[0].script_sig = Script([sig, sec])\n",
    "print(tx_obj.serialize().hex())"
   ]
  },
  {
   "cell_type": "markdown",
   "id": "ac3ff5f7",
   "metadata": {},
   "source": [
    "### Exercise 2\n",
    "\n",
    "\n",
    "\n",
    "\n",
    "#### Make [this test](/edit/session5/tx.py) pass: `tx.py:TxTest:test_sign_input`"
   ]
  },
  {
   "cell_type": "code",
   "execution_count": 32,
   "id": "6c5e2d30",
   "metadata": {},
   "outputs": [
    {
     "name": "stderr",
     "output_type": "stream",
     "text": [
      ".\n",
      "----------------------------------------------------------------------\n",
      "Ran 1 test in 0.130s\n",
      "\n",
      "OK\n"
     ]
    }
   ],
   "source": [
    "# Exercise 2\n",
    "\n",
    "reload(tx)\n",
    "run(tx.TxTest('test_sign_input'))"
   ]
  },
  {
   "cell_type": "markdown",
   "id": "aba4ea16",
   "metadata": {},
   "source": [
    "### Exercise 3\n",
    "You have been sent 100,000 Sats on the Signet network. Send 40,000 Sats to this address: `mqYz6JpuKukHzPg94y4XNDdPCEJrNkLQcv` and send the rest back to yourself.\n",
    "\n",
    "#### Send your transaction here: https://mempool.space/signet/tx/push\n"
   ]
  },
  {
   "cell_type": "code",
   "execution_count": 11,
   "id": "98e667f5",
   "metadata": {},
   "outputs": [
    {
     "ename": "NameError",
     "evalue": "name 'requests' is not defined",
     "output_type": "error",
     "traceback": [
      "\u001b[1;31m---------------------------------------------------------------------------\u001b[0m",
      "\u001b[1;31mNameError\u001b[0m                                 Traceback (most recent call last)",
      "Cell \u001b[1;32mIn[11], line 41\u001b[0m\n\u001b[0;32m     37\u001b[0m p2pkh \u001b[38;5;241m=\u001b[39m p2pkh_script(hash160)\n\u001b[0;32m     39\u001b[0m \u001b[38;5;66;03m# get the value for the transaction input (remember network=\"signet\")\u001b[39;00m\n\u001b[0;32m     40\u001b[0m \u001b[38;5;66;03m# calculate change_amount based on previous amount, target_amount & fee\u001b[39;00m\n\u001b[1;32m---> 41\u001b[0m prev_amount \u001b[38;5;241m=\u001b[39m \u001b[43mtx_ins\u001b[49m\u001b[43m[\u001b[49m\u001b[38;5;241;43m0\u001b[39;49m\u001b[43m]\u001b[49m\u001b[38;5;241;43m.\u001b[39;49m\u001b[43mvalue\u001b[49m\u001b[43m(\u001b[49m\u001b[43mnetwork\u001b[49m\u001b[38;5;241;43m=\u001b[39;49m\u001b[38;5;124;43m\"\u001b[39;49m\u001b[38;5;124;43msignet\u001b[39;49m\u001b[38;5;124;43m\"\u001b[39;49m\u001b[43m)\u001b[49m \n\u001b[0;32m     42\u001b[0m change_amount \u001b[38;5;241m=\u001b[39m prev_amount \u001b[38;5;241m-\u001b[39m target_amount \u001b[38;5;241m-\u001b[39m fee \n\u001b[0;32m     44\u001b[0m \u001b[38;5;66;03m# create a new tx output for change with amount and script_pubkey\u001b[39;00m\n",
      "File \u001b[1;32m~\\Documents\\GitHub\\ProgrammingBitcoin-JimmySong\\session5\\tx.py:287\u001b[0m, in \u001b[0;36mTxIn.value\u001b[1;34m(self, network)\u001b[0m\n\u001b[0;32m    283\u001b[0m \u001b[38;5;250m\u001b[39m\u001b[38;5;124;03m\"\"\"Get the outpoint value by looking up the tx hash\u001b[39;00m\n\u001b[0;32m    284\u001b[0m \u001b[38;5;124;03mReturns the amount in satoshi\u001b[39;00m\n\u001b[0;32m    285\u001b[0m \u001b[38;5;124;03m\"\"\"\u001b[39;00m\n\u001b[0;32m    286\u001b[0m \u001b[38;5;66;03m# use self.fetch_tx to get the transaction\u001b[39;00m\n\u001b[1;32m--> 287\u001b[0m tx \u001b[38;5;241m=\u001b[39m \u001b[38;5;28;43mself\u001b[39;49m\u001b[38;5;241;43m.\u001b[39;49m\u001b[43mfetch_tx\u001b[49m\u001b[43m(\u001b[49m\u001b[43mnetwork\u001b[49m\u001b[38;5;241;43m=\u001b[39;49m\u001b[43mnetwork\u001b[49m\u001b[43m)\u001b[49m\n\u001b[0;32m    288\u001b[0m \u001b[38;5;66;03m# get the output at self.prev_index\u001b[39;00m\n\u001b[0;32m    289\u001b[0m \u001b[38;5;66;03m# return the amount property\u001b[39;00m\n\u001b[0;32m    290\u001b[0m \u001b[38;5;28;01mreturn\u001b[39;00m tx\u001b[38;5;241m.\u001b[39mtx_outs[\u001b[38;5;28mself\u001b[39m\u001b[38;5;241m.\u001b[39mprev_index]\u001b[38;5;241m.\u001b[39mamount\n",
      "File \u001b[1;32m~\\Documents\\GitHub\\ProgrammingBitcoin-JimmySong\\session5\\tx.py:280\u001b[0m, in \u001b[0;36mTxIn.fetch_tx\u001b[1;34m(self, network)\u001b[0m\n\u001b[0;32m    279\u001b[0m \u001b[38;5;28;01mdef\u001b[39;00m \u001b[38;5;21mfetch_tx\u001b[39m(\u001b[38;5;28mself\u001b[39m, network\u001b[38;5;241m=\u001b[39m\u001b[38;5;124m\"\u001b[39m\u001b[38;5;124mmainnet\u001b[39m\u001b[38;5;124m\"\u001b[39m):\n\u001b[1;32m--> 280\u001b[0m     \u001b[38;5;28;01mreturn\u001b[39;00m \u001b[43mTxFetcher\u001b[49m\u001b[38;5;241;43m.\u001b[39;49m\u001b[43mfetch\u001b[49m\u001b[43m(\u001b[49m\u001b[38;5;28;43mself\u001b[39;49m\u001b[38;5;241;43m.\u001b[39;49m\u001b[43mprev_tx\u001b[49m\u001b[38;5;241;43m.\u001b[39;49m\u001b[43mhex\u001b[49m\u001b[43m(\u001b[49m\u001b[43m)\u001b[49m\u001b[43m,\u001b[49m\u001b[43m \u001b[49m\u001b[43mnetwork\u001b[49m\u001b[38;5;241;43m=\u001b[39;49m\u001b[43mnetwork\u001b[49m\u001b[43m)\u001b[49m\n",
      "File \u001b[1;32m~\\Documents\\GitHub\\ProgrammingBitcoin-JimmySong\\session5\\tx.py:36\u001b[0m, in \u001b[0;36mTxFetcher.fetch\u001b[1;34m(cls, tx_id, network, fresh)\u001b[0m\n\u001b[0;32m     34\u001b[0m \u001b[38;5;28;01mif\u001b[39;00m fresh \u001b[38;5;129;01mor\u001b[39;00m (tx_id \u001b[38;5;129;01mnot\u001b[39;00m \u001b[38;5;129;01min\u001b[39;00m \u001b[38;5;28mcls\u001b[39m\u001b[38;5;241m.\u001b[39mcache):\n\u001b[0;32m     35\u001b[0m     url \u001b[38;5;241m=\u001b[39m \u001b[38;5;124mf\u001b[39m\u001b[38;5;124m\"\u001b[39m\u001b[38;5;132;01m{\u001b[39;00m\u001b[38;5;28mcls\u001b[39m\u001b[38;5;241m.\u001b[39mget_url(network)\u001b[38;5;132;01m}\u001b[39;00m\u001b[38;5;124m/tx/\u001b[39m\u001b[38;5;132;01m{\u001b[39;00mtx_id\u001b[38;5;132;01m}\u001b[39;00m\u001b[38;5;124m/hex\u001b[39m\u001b[38;5;124m\"\u001b[39m\n\u001b[1;32m---> 36\u001b[0m     response \u001b[38;5;241m=\u001b[39m \u001b[43mrequests\u001b[49m\u001b[38;5;241m.\u001b[39mget(url)\n\u001b[0;32m     37\u001b[0m     \u001b[38;5;28;01mtry\u001b[39;00m:\n\u001b[0;32m     38\u001b[0m         raw \u001b[38;5;241m=\u001b[39m \u001b[38;5;28mbytes\u001b[39m\u001b[38;5;241m.\u001b[39mfromhex(response\u001b[38;5;241m.\u001b[39mtext\u001b[38;5;241m.\u001b[39mstrip())\n",
      "\u001b[1;31mNameError\u001b[0m: name 'requests' is not defined"
     ]
    }
   ],
   "source": [
    "# Exercise 3\n",
    "\n",
    "from tx import Tx, TxIn, TxOut\n",
    "from helper import decode_base58, hash256, little_endian_to_int\n",
    "from script import p2pkh_script\n",
    "prev_tx = bytes.fromhex('95ae966a54493321316799d5c4ba7f48faadd653b7eb725ea2c5ea7d38f65cff')  # CHANGE\n",
    "prev_index = 0  # CHANGE\n",
    "target_address = 'mqYz6JpuKukHzPg94y4XNDdPCEJrNkLQcv'\n",
    "target_amount = 40000\n",
    "fee = 300\n",
    "passphrase = b'barbokupna@gmail.com'  # CHANGE\n",
    "secret = little_endian_to_int(hash256(passphrase))\n",
    "private_key = PrivateKey(secret=secret)\n",
    "change_address = private_key.point.address(network=\"signet\")\n",
    "\n",
    "# initialize inputs\n",
    "tx_ins = []\n",
    "# create a new tx input with prev_tx, prev_index\n",
    "tx_in = TxIn(prev_tx,prev_index)\n",
    "tx_ins.append(tx_in)\n",
    "\n",
    "# initialize outputs\n",
    "tx_outs = []\n",
    "\n",
    "# decode the hash160 from the target address\n",
    "hash160 = decode_base58(target_address)\n",
    "\n",
    "# convert hash160 to p2pkh script\n",
    "p2pkh = p2pkh_script(hash160)\n",
    "\n",
    "# create a new tx output for target with amount and script_pubkey\n",
    "tx_outs.append(TxOut(int(target_amount*100000000), p2pkh ))\n",
    "\n",
    "# decode the hash160 from the change address\n",
    "# convert hash160 to p2pkh script\n",
    "hash160 = decode_base58(change_address)\n",
    "p2pkh = p2pkh_script(hash160)\n",
    "\n",
    "# get the value for the transaction input (remember network=\"signet\")\n",
    "# calculate change_amount based on previous amount, target_amount & fee\n",
    "prev_amount = tx_ins[0].value(network=\"signet\") \n",
    "change_amount = prev_amount - target_amount - fee \n",
    "\n",
    "# create a new tx output for change with amount and script_pubkey\n",
    "tx_outs.append(TxOut(change_amount, p2pkh  ))\n",
    "\n",
    "# create the transaction (name it tx_obj and set network=\"signet\")\n",
    "tx_obj = Tx(1, tx_ins, tx_outs, 0, network=\"signet\")\n",
    "\n",
    "# now sign the 0th input with the private_key using sign_input\n",
    "tx_obj.sign_input(0, private_key)\n",
    "\n",
    "# SANITY CHECK: change address corresponds to private key\n",
    "if private_key.point.address(network=\"signet\") != change_address:\n",
    "    raise RuntimeError('Private Key does not correspond to Change Address, check priv_key and change_address')\n",
    "# SANITY CHECK: output's script_pubkey is the same one as your address\n",
    "if tx_ins[0].script_pubkey(network=\"signet\").commands[2] != decode_base58(change_address):\n",
    "    raise RuntimeError('Output is not something you can spend with this private key. Check that the prev_tx and prev_index are correct')\n",
    "# SANITY CHECK: fee is reasonable\n",
    "if tx_obj.fee() > 100000 or tx_obj.fee() <= 0:\n",
    "    raise RuntimeError(f'Check that the change amount is reasonable. Fee is {tx_obj.fee()}')\n",
    "# serialize and hex()\n",
    "print(tx_obj.serialize().hex())"
   ]
  },
  {
   "cell_type": "markdown",
   "id": "77cf1f11",
   "metadata": {},
   "source": [
    "### Exercise 4\n",
    "#### Bonus Question. Only attempt if you've finished Exercise 3 and have time to try it.\n",
    "\n",
    "Get some signet coins from a faucet and spend both outputs (one from your change address and one from the signet faucet) to\n",
    "\n",
    "`mqYz6JpuKukHzPg94y4XNDdPCEJrNkLQcv`\n",
    "\n",
    "#### You can get some free signet coins at: https://signet.bc-2.jp/\n"
   ]
  },
  {
   "cell_type": "code",
   "execution_count": 12,
   "id": "5a755e11",
   "metadata": {},
   "outputs": [
    {
     "ename": "ValueError",
     "evalue": "non-hexadecimal number found in fromhex() arg at position 0",
     "output_type": "error",
     "traceback": [
      "\u001b[1;31m---------------------------------------------------------------------------\u001b[0m",
      "\u001b[1;31mValueError\u001b[0m                                Traceback (most recent call last)",
      "Cell \u001b[1;32mIn[12], line 7\u001b[0m\n\u001b[0;32m      5\u001b[0m \u001b[38;5;28;01mfrom\u001b[39;00m \u001b[38;5;21;01mhelper\u001b[39;00m \u001b[38;5;28;01mimport\u001b[39;00m decode_base58, hash256, little_endian_to_int\n\u001b[0;32m      6\u001b[0m \u001b[38;5;28;01mfrom\u001b[39;00m \u001b[38;5;21;01mscript\u001b[39;00m \u001b[38;5;28;01mimport\u001b[39;00m p2pkh_script\n\u001b[1;32m----> 7\u001b[0m prev_tx_1 \u001b[38;5;241m=\u001b[39m \u001b[38;5;28;43mbytes\u001b[39;49m\u001b[38;5;241;43m.\u001b[39;49m\u001b[43mfromhex\u001b[49m\u001b[43m(\u001b[49m\u001b[38;5;124;43m'\u001b[39;49m\u001b[38;5;124;43m<tx id from last exercise>\u001b[39;49m\u001b[38;5;124;43m'\u001b[39;49m\u001b[43m)\u001b[49m  \u001b[38;5;66;03m# CHANGE\u001b[39;00m\n\u001b[0;32m      8\u001b[0m prev_index_1 \u001b[38;5;241m=\u001b[39m \u001b[38;5;241m-\u001b[39m\u001b[38;5;241m1\u001b[39m  \u001b[38;5;66;03m# CHANGE\u001b[39;00m\n\u001b[0;32m      9\u001b[0m prev_tx_2 \u001b[38;5;241m=\u001b[39m \u001b[38;5;28mbytes\u001b[39m\u001b[38;5;241m.\u001b[39mfromhex(\u001b[38;5;124m'\u001b[39m\u001b[38;5;124m<tx id from faucet>\u001b[39m\u001b[38;5;124m'\u001b[39m)  \u001b[38;5;66;03m# CHANGE\u001b[39;00m\n",
      "\u001b[1;31mValueError\u001b[0m: non-hexadecimal number found in fromhex() arg at position 0"
     ]
    }
   ],
   "source": [
    "# Exercise 4\n",
    "\n",
    "# Bonus\n",
    "from tx import Tx, TxIn, TxOut\n",
    "from helper import decode_base58, hash256, little_endian_to_int\n",
    "from script import p2pkh_script\n",
    "prev_tx_1 = bytes.fromhex('<tx id from last exercise>')  # CHANGE\n",
    "prev_index_1 = -1  # CHANGE\n",
    "prev_tx_2 = bytes.fromhex('<tx id from faucet>')  # CHANGE\n",
    "prev_index_2 = -1  # CHANGE\n",
    "target_address = 'mqYz6JpuKukHzPg94y4XNDdPCEJrNkLQcv'\n",
    "fee = 400\n",
    "passphrase = b'<your passphrase here>'  # CHANGE\n",
    "secret = little_endian_to_int(hash256(passphrase))\n",
    "private_key = PrivateKey(secret=secret)\n",
    "# initialize inputs\n",
    "\n",
    "# create the first tx input with prev_tx_1, prev_index_1\n",
    "\n",
    "# create the second tx input with prev_tx_2, prev_index_2\n",
    "\n",
    "# initialize outputs\n",
    "\n",
    "# decode the hash160 from the target address\n",
    "\n",
    "# convert hash160 to p2pkh script\n",
    "\n",
    "# calculate target amount by adding the input values and subtracting the fee\n",
    "\n",
    "# create a single tx output for target with amount and script_pubkey\n",
    "\n",
    "# create the transaction\n",
    "\n",
    "# sign both inputs with the private key using sign_input\n",
    "\n",
    "\n",
    "# SANITY CHECK: output's script_pubkey is the same one as your address\n",
    "if tx_ins[0].script_pubkey(network=\"signet\").commands[2] != decode_base58(private_key.point.address(network=\"signet\")):\n",
    "    raise RuntimeError('Output is not something you can spend with this private key. Check that the prev_tx and prev_index are correct')\n",
    "# SANITY CHECK: fee is reasonable\n",
    "if tx_obj.fee() > 100000 or tx_obj.fee() <= 0:\n",
    "    raise RuntimeError('Check that the change amount is reasonable. Fee is {tx_obj.fee()}')\n",
    "# serialize and hex()\n"
   ]
  },
  {
   "cell_type": "code",
   "execution_count": 13,
   "id": "f0c066ec",
   "metadata": {},
   "outputs": [],
   "source": [
    "# op_checkmultisig\n",
    "def op_checkmultisig(stack, z):\n",
    "    if len(stack) < 1:\n",
    "        return False\n",
    "    n = decode_num(stack.pop())\n",
    "    if len(stack) < n + 1:\n",
    "        return False\n",
    "    sec_pubkeys = []\n",
    "    for _ in range(n):\n",
    "        sec_pubkeys.append(stack.pop())\n",
    "    m = decode_num(stack.pop())\n",
    "    if len(stack) < m + 1:\n",
    "        return False\n",
    "    der_signatures = []\n",
    "    for _ in range(m):\n",
    "        # signature is assumed to be using SIGHASH_ALL\n",
    "        der_signatures.append(stack.pop()[:-1])\n",
    "    # OP_CHECKMULTISIG bug\n",
    "    stack.pop()\n",
    "    try:\n",
    "        raise NotImplementedError\n",
    "    except (ValueError, SyntaxError):\n",
    "        return False\n",
    "    return True"
   ]
  },
  {
   "cell_type": "markdown",
   "id": "b21baaee",
   "metadata": {},
   "source": [
    "### Exercise 5\n",
    "\n",
    "\n",
    "\n",
    "\n",
    "#### Make [this test](/edit/session5/op.py) pass: `op.py:OpTest:test_op_checkmultisig`"
   ]
  },
  {
   "cell_type": "code",
   "execution_count": 14,
   "id": "2dccb547",
   "metadata": {},
   "outputs": [
    {
     "name": "stderr",
     "output_type": "stream",
     "text": [
      ".\n",
      "----------------------------------------------------------------------\n",
      "Ran 1 test in 0.165s\n",
      "\n",
      "OK\n"
     ]
    }
   ],
   "source": [
    "# Exercise 5\n",
    "\n",
    "reload(op)\n",
    "reload(script)\n",
    "run(op.OpTest('test_op_checkmultisig'))"
   ]
  },
  {
   "cell_type": "markdown",
   "id": "d58366fe",
   "metadata": {},
   "source": [
    "### Exercise 6\n",
    "Find the hash160 of the RedeemScript\n",
    "```\n",
    "5221022626e955ea6ea6d98850c994f9107b036b1334f18ca8830bfff1295d21cfdb702103b287eaf122eea69030a0e9feed096bed8045c8b98bec453e1ffac7fbdbd4bb7152ae\n",
    "```\n"
   ]
  },
  {
   "cell_type": "code",
   "execution_count": 15,
   "id": "e9936bbf",
   "metadata": {},
   "outputs": [
    {
     "name": "stdout",
     "output_type": "stream",
     "text": [
      "74d691da1574e6b3c192ecfb52cc8984ee7b6c56\n"
     ]
    }
   ],
   "source": [
    "# Exercise 6\n",
    "\n",
    "from helper import hash160\n",
    "hex_redeem_script = '5221022626e955ea6ea6d98850c994f9107b036b1334f18ca8830bfff1295d21cfdb702103b287eaf122eea69030a0e9feed096bed8045c8b98bec453e1ffac7fbdbd4bb7152ae'\n",
    "# bytes.fromhex script\n",
    "script = bytes.fromhex(hex_redeem_script)\n",
    "# hash160 result\n",
    "result = hash160(script)\n",
    "print(result.hex())\n",
    "# hex() to display\n"
   ]
  },
  {
   "cell_type": "code",
   "execution_count": 16,
   "id": "4fd483ec",
   "metadata": {},
   "outputs": [
    {
     "name": "stdout",
     "output_type": "stream",
     "text": [
      "3CLoMMyuoDQTPRD3XYZtCvgvkadrAdvdXh\n"
     ]
    }
   ],
   "source": [
    "# P2SH address construction example\n",
    "from helper import encode_base58_checksum\n",
    "print(encode_base58_checksum(b'\\x05'+bytes.fromhex('74d691da1574e6b3c192ecfb52cc8984ee7b6c56')))"
   ]
  },
  {
   "cell_type": "markdown",
   "id": "540dbade",
   "metadata": {},
   "source": [
    "### Exercise 7\n",
    "\n",
    "\n",
    "\n",
    "\n",
    "#### Make [this test](/edit/session5/helper.py) pass: `helper.py:HelperTest:test_p2pkh_address`"
   ]
  },
  {
   "cell_type": "code",
   "execution_count": 35,
   "id": "8d98c57e",
   "metadata": {},
   "outputs": [
    {
     "name": "stderr",
     "output_type": "stream",
     "text": [
      ".\n",
      "----------------------------------------------------------------------\n",
      "Ran 1 test in 0.001s\n",
      "\n",
      "OK\n"
     ]
    }
   ],
   "source": [
    "# Exercise 7\n",
    "\n",
    "reload(helper)\n",
    "run(helper.HelperTest('test_p2pkh_address'))"
   ]
  },
  {
   "cell_type": "markdown",
   "id": "b967cbea",
   "metadata": {},
   "source": [
    "### Exercise 8\n",
    "\n",
    "\n",
    "\n",
    "\n",
    "#### Make [this test](/edit/session5/helper.py) pass: `helper.py:HelperTest:test_p2sh_address`"
   ]
  },
  {
   "cell_type": "code",
   "execution_count": 36,
   "id": "5b631495",
   "metadata": {},
   "outputs": [
    {
     "name": "stderr",
     "output_type": "stream",
     "text": [
      ".\n",
      "----------------------------------------------------------------------\n",
      "Ran 1 test in 0.000s\n",
      "\n",
      "OK\n"
     ]
    }
   ],
   "source": [
    "# Exercise 8\n",
    "\n",
    "reload(helper)\n",
    "run(helper.HelperTest('test_p2sh_address'))"
   ]
  },
  {
   "cell_type": "markdown",
   "id": "8bbc04be",
   "metadata": {},
   "source": [
    "### Exercise 9\n",
    "\n",
    "\n",
    "\n",
    "\n",
    "#### Make [this test](/edit/session5/script.py) pass: `script.py:ScriptTest:test_address`"
   ]
  },
  {
   "cell_type": "code",
   "execution_count": 43,
   "id": "f4c0c7b9",
   "metadata": {},
   "outputs": [
    {
     "name": "stderr",
     "output_type": "stream",
     "text": [
      ".\n",
      "----------------------------------------------------------------------\n",
      "Ran 1 test in 0.001s\n",
      "\n",
      "OK\n"
     ]
    }
   ],
   "source": [
    "# Exercise 9\n",
    "\n",
    "reload(script)\n",
    "run(script.ScriptTest('test_address'))"
   ]
  },
  {
   "cell_type": "code",
   "execution_count": 44,
   "id": "479ad1ec",
   "metadata": {},
   "outputs": [
    {
     "name": "stdout",
     "output_type": "stream",
     "text": [
      "0xe71bfa115715d6fd33796948126f40a8cdd39f187e4afb03896795189fe1423c\n"
     ]
    }
   ],
   "source": [
    "# z for p2sh example\n",
    "from helper import hash256\n",
    "h256 = hash256(bytes.fromhex('0100000001868278ed6ddfb6c1ed3ad5f8181eb0c7a385aa0836f01d5e4789e6bd304d87221a000000475221022626e955ea6ea6d98850c994f9107b036b1334f18ca8830bfff1295d21cfdb702103b287eaf122eea69030a0e9feed096bed8045c8b98bec453e1ffac7fbdbd4bb7152aeffffffff04d3b11400000000001976a914904a49878c0adfc3aa05de7afad2cc15f483a56a88ac7f400900000000001976a914418327e3f3dda4cf5b9089325a4b95abdfa0334088ac722c0c00000000001976a914ba35042cfe9fc66fd35ac2224eebdafd1028ad2788acdc4ace020000000017a91474d691da1574e6b3c192ecfb52cc8984ee7b6c56870000000001000000'))\n",
    "z = int.from_bytes(h256, 'big')\n",
    "print(hex(z))"
   ]
  },
  {
   "cell_type": "code",
   "execution_count": 45,
   "id": "087a1993",
   "metadata": {},
   "outputs": [
    {
     "name": "stdout",
     "output_type": "stream",
     "text": [
      "True\n"
     ]
    }
   ],
   "source": [
    "# p2sh verification example\n",
    "from ecc import S256Point, Signature\n",
    "from helper import hash256\n",
    "h256 = hash256(bytes.fromhex('0100000001868278ed6ddfb6c1ed3ad5f8181eb0c7a385aa0836f01d5e4789e6bd304d87221a000000475221022626e955ea6ea6d98850c994f9107b036b1334f18ca8830bfff1295d21cfdb702103b287eaf122eea69030a0e9feed096bed8045c8b98bec453e1ffac7fbdbd4bb7152aeffffffff04d3b11400000000001976a914904a49878c0adfc3aa05de7afad2cc15f483a56a88ac7f400900000000001976a914418327e3f3dda4cf5b9089325a4b95abdfa0334088ac722c0c00000000001976a914ba35042cfe9fc66fd35ac2224eebdafd1028ad2788acdc4ace020000000017a91474d691da1574e6b3c192ecfb52cc8984ee7b6c56870000000001000000'))\n",
    "z = int.from_bytes(h256, 'big')\n",
    "point = S256Point.parse(bytes.fromhex('022626e955ea6ea6d98850c994f9107b036b1334f18ca8830bfff1295d21cfdb70'))\n",
    "sig = Signature.parse(bytes.fromhex('3045022100dc92655fe37036f47756db8102e0d7d5e28b3beb83a8fef4f5dc0559bddfb94e02205a36d4e4e6c7fcd16658c50783e00c341609977aed3ad00937bf4ee942a89937'))\n",
    "print(point.verify(z, sig))"
   ]
  },
  {
   "cell_type": "markdown",
   "id": "e22a77b4",
   "metadata": {},
   "source": [
    "### Exercise 10\n",
    "Validate the second signature of the first input\n",
    "\n",
    "```\n",
    "0100000001868278ed6ddfb6c1ed3ad5f8181eb0c7a385aa0836f01d5e4789e6bd304d87221a000000db00483045022100dc92655fe37036f47756db8102e0d7d5e28b3beb83a8fef4f5dc0559bddfb94e02205a36d4e4e6c7fcd16658c50783e00c341609977aed3ad00937bf4ee942a8993701483045022100da6bee3c93766232079a01639d07fa869598749729ae323eab8eef53577d611b02207bef15429dcadce2121ea07f233115c6f09034c0be68db99980b9a6c5e75402201475221022626e955ea6ea6d98850c994f9107b036b1334f18ca8830bfff1295d21cfdb702103b287eaf122eea69030a0e9feed096bed8045c8b98bec453e1ffac7fbdbd4bb7152aeffffffff04d3b11400000000001976a914904a49878c0adfc3aa05de7afad2cc15f483a56a88ac7f400900000000001976a914418327e3f3dda4cf5b9089325a4b95abdfa0334088ac722c0c00000000001976a914ba35042cfe9fc66fd35ac2224eebdafd1028ad2788acdc4ace020000000017a91474d691da1574e6b3c192ecfb52cc8984ee7b6c568700000000\n",
    "```\n",
    "\n",
    "The sec pubkey of the second signature is:\n",
    "```\n",
    "03b287eaf122eea69030a0e9feed096bed8045c8b98bec453e1ffac7fbdbd4bb71\n",
    "```\n",
    "\n",
    "The der signature of the second signature is:\n",
    "```\n",
    "3045022100da6bee3c93766232079a01639d07fa869598749729ae323eab8eef53577d611b02207bef15429dcadce2121ea07f233115c6f09034c0be68db99980b9a6c5e75402201475221022\n",
    "```\n",
    "\n",
    "The redeemScript is:\n",
    "```\n",
    "475221022626e955ea6ea6d98850c994f9107b036b1334f18ca8830bfff1295d21cfdb702103b287eaf122eea69030a0e9feed096bed8045c8b98bec453e1ffac7fbdbd4bb7152ae\n",
    "```\n"
   ]
  },
  {
   "cell_type": "code",
   "execution_count": null,
   "id": "ac3f4b83",
   "metadata": {},
   "outputs": [],
   "source": [
    "# Exercise 10\n",
    "\n",
    "from io import BytesIO\n",
    "from ecc import S256Point, Signature\n",
    "from helper import int_to_little_endian, SIGHASH_ALL\n",
    "from script import Script\n",
    "from tx import Tx\n",
    "hex_sec = '03b287eaf122eea69030a0e9feed096bed8045c8b98bec453e1ffac7fbdbd4bb71'\n",
    "hex_der = '3045022100da6bee3c93766232079a01639d07fa869598749729ae323eab8eef53577d611b02207bef15429dcadce2121ea07f233115c6f09034c0be68db99980b9a6c5e754022'\n",
    "hex_redeem_script = '475221022626e955ea6ea6d98850c994f9107b036b1334f18ca8830bfff1295d21cfdb702103b287eaf122eea69030a0e9feed096bed8045c8b98bec453e1ffac7fbdbd4bb7152ae'\n",
    "sec = bytes.fromhex(hex_sec)\n",
    "der = bytes.fromhex(hex_der)\n",
    "redeem_script_stream = BytesIO(bytes.fromhex(hex_redeem_script))\n",
    "redeem_script = Script.parse(redeem_script_stream)\n",
    "hex_tx = '0100000001868278ed6ddfb6c1ed3ad5f8181eb0c7a385aa0836f01d5e4789e6bd304d87221a000000db00483045022100dc92655fe37036f47756db8102e0d7d5e28b3beb83a8fef4f5dc0559bddfb94e02205a36d4e4e6c7fcd16658c50783e00c341609977aed3ad00937bf4ee942a8993701483045022100da6bee3c93766232079a01639d07fa869598749729ae323eab8eef53577d611b02207bef15429dcadce2121ea07f233115c6f09034c0be68db99980b9a6c5e75402201475221022626e955ea6ea6d98850c994f9107b036b1334f18ca8830bfff1295d21cfdb702103b287eaf122eea69030a0e9feed096bed8045c8b98bec453e1ffac7fbdbd4bb7152aeffffffff04d3b11400000000001976a914904a49878c0adfc3aa05de7afad2cc15f483a56a88ac7f400900000000001976a914418327e3f3dda4cf5b9089325a4b95abdfa0334088ac722c0c00000000001976a914ba35042cfe9fc66fd35ac2224eebdafd1028ad2788acdc4ace020000000017a91474d691da1574e6b3c192ecfb52cc8984ee7b6c568700000000'\n",
    "stream = BytesIO(bytes.fromhex(hex_tx))\n",
    "# parse the S256Point and Signature\n",
    "sig = Signature.parse(der)\n",
    "sec = S256Point.parse(sec)\n",
    "\n",
    "# parse the Tx\n",
    "t = Tx.parse(stream)\n",
    "\n",
    "# change the first input's ScriptSig to RedeemScript\n",
    "t.tx_ins[0].ScriptSig = redeem_script\n",
    "\n",
    "# get the serialization\n",
    "\n",
    "# add the sighash (4 bytes, little-endian of SIGHASH_ALL)\n",
    "\n",
    "# hash256 the result\n",
    "\n",
    "# your z is the hash256 as a big-endian number: use int.from_bytes(x, 'big')\n",
    "\n",
    "# now verify the signature using point.verify\n"
   ]
  }
 ],
 "metadata": {
  "kernelspec": {
   "display_name": "Python 3 (ipykernel)",
   "language": "python",
   "name": "python3"
  },
  "language_info": {
   "codemirror_mode": {
    "name": "ipython",
    "version": 3
   },
   "file_extension": ".py",
   "mimetype": "text/x-python",
   "name": "python",
   "nbconvert_exporter": "python",
   "pygments_lexer": "ipython3",
   "version": "3.11.1"
  }
 },
 "nbformat": 4,
 "nbformat_minor": 5
}
